:100000000C9455000C94C4030C9472000C94720070
:100010000C9472000C9472000C9472000C94E70320
:100020000C9472000C9472000C9472000C94600298
:100030000C9472000C94D7020C9472000C94720011
:100040000C9472000C9472000C949E040C94BE04E8
:100050000C94F4040C9472000C9472000C947200D2
:100060000C94AD000C9472002449643A206A7569BE
:1000700063652D7477692E63203139362032303133
:10008000332D30322D31332031313A33353A353852
:100090005A2061646E616E4073696E676E65742E7E
:1000A000636F6D2E73672024000011241FBECFEFF5
:1000B000D4E0DEBFCDBF11E0A0E0B1E0E2E4FCE0BF
:1000C00002C005900D92A035B107D9F712E0A0E566
:1000D000B1E001C01D92A837B107E1F70E945905B0
:1000E0000C941F060C9400008091500190915101D6
:1000F000A0915201B09153012091100134E0239F4F
:10010000F0011124E050FF4F4081518162817381E1
:10011000481759076A077B0764F00196A11DB11DB6
:100120008093500190935101A0935201B0935301D9
:1001300008951092500110925101109252011092A4
:100140005301822F8F5F982F93709093100180FF3F
:1001500002C05F9A08955F9808951F920F920FB69C
:100160000F9211242F933F934F935F936F937F933D
:100170008F939F93AF93BF93CF93EF93FF93809110
:10018000B9008093540180915401887F803909F42B
:1001900057C090F4803709F450C038F4882309F42C
:1001A0003AC1803609F039C148C0803809F448C0E6
:1001B000883809F032C12FC1883A71F020F48839AB
:1001C00009F429C12AC1803C09F427C1883C09F4FB
:1001D00022C1883B09F021C1809155018093BB0069
:1001E00085EC8093BC0080915601813419F4809194
:1001F00079000FC0813581F48091570190915801A9
:100200009C012F5F3F4F30935801209357010E946C
:1002100009068093550104C1813B09F001C1E091B9
:100220005901F0915A01CF01019690935A018093A0
:100230005901E491E0935501F3C010925B01EDC0C8
:100240008091BB0020915B012F5F20935B012130E7
:1002500041F008F4E2C090915601223009F098C0B4
:1002600044C080935601811119C00E948A03C1E0E5
:10027000811101C0C0E00E940A05882311F024E02A
:1002800001C020E0F99902C090E001C090E28091A5
:100290007A0080748C2B822B892BBAC0813419F49C
:1002A00080917800B5C0803141F40E948A03882390
:1002B00009F4B3C00E949303ABC0803241F40E94A2
:1002C0000A05882309F4A9C00E941305A1C081353D
:1002D00009F491C0813B09F0A0C0E0915901F0916F
:1002E0005A01E491E093550198C0292F2150243000
:1002F00028F480935C0110925D018FC0903109F465
:100300005DC0953109F405C0903209F45CC09532A6
:1003100019F480935E0181C0903449F48F7C8093FE
:100320007C0080917A00806480937A0076C090355A
:1003300029F480935701109258016FC0913541F410
:10034000682F80915701909158010E94110665C055
:10035000913B39F488E690E090935A0180935901DB
:100360005CC0903B09F059C08D3009F056C08091B7
:10037000BC00806C8093BC0029E088E190E00FB65F
:10038000F894A895809360000FBE20936000FFCF83
:10039000492F4150443080F4382F20E060915C01B7
:1003A00070915D01622B732B70935D0160935C0112
:1003B000842F0E943A0231C0903119F40E945A03EE
:1003C0002CC0903219F40E94240527C0953129F4DD
:1003D00060915E010E94290320C0953251F4382FAC
:1003E00020E080915E01A901482BCA010E94990476
:1003F00014C0903591F480915701909158019C015F
:100400002F5F3F4F30935801209357010E940906F8
:100410008093550102C080E901C085EC8093BC0047
:10042000FF91EF91CF91BF91AF919F918F917F916C
:100430006F915F914F913F912F910F900FBE0F9051
:100440001F9018958CEC9AE0909389008093880017
:1004500088E995E1909387008093860082E08093FD
:1004600080008AE18093810087E286BB83E08093ED
:100470006F000895CF93DF93683592E079072CF0F1
:10048000613699E0790724F405C068E572E002C09E
:1004900060E679E0C82FD0E020E038E4DB010E947C
:1004A000900520E137E240E050E00E94AB05CC0F20
:1004B000DD1FC05EDE4F39832883DF91CF91089521
:1004C0001F920F920FB60F9211242F935F936F9389
:1004D0007F938F939F93AF93BF93EF93FF93E0919D
:1004E0005F01F0E0EC5BFE4F80818330B1F084303F
:1004F00031F18230A9F525B1E0915F01F0E0E85CCF
:10050000FE4F81E090E0008002C0880F991F0A949E
:10051000E2F78095822385B923C028B1E0915F017D
:10052000F0E0E85CFE4F81E090E0008002C0880FC0
:10053000991F0A94E2F78095822388B911C02BB1E4
:10054000E0915F01F0E0E85CFE4F81E090E0008028
:1005500002C0880F991F0A94E2F7809582238BB915
:1005600080915F0160911F0190E0019670E00E9410
:10057000970580935F01E0915F01F0E0EE0FFF1FB0
:10058000E05EFE4F80819181909389008093880086
:10059000FF91EF91BF91AF919F918F917F916F915B
:1005A0005F912F910F900FBE0F901F9018951F9283
:1005B0000F920FB60F9211242F938F939F93EF9367
:1005C000FF93E0915F01F0E0EC5BFE4F80818330B0
:1005D000A9F0843021F1823091F525B1E0915F01DD
:1005E000F0E0E85CFE4F81E090E0008002C0880F00
:1005F000991F0A94E2F7282B25B921C028B1E09170
:100600005F01F0E0E85CFE4F81E090E0008002C016
:10061000880F991F0A94E2F7282B28B910C02BB134
:10062000E0915F01F0E0E85CFE4F81E090E0008047
:1006300002C0880F991F0A94E2F7282B2BB9FF916B
:10064000EF919F918F912F910F900FBE0F901F9060
:10065000189592E09093B00087708093B100862F38
:10066000815080936101862F8695860F809360016B
:10067000809161018093B3000895109263011092FC
:1006800064011092650110926601E9E6F0E0808154
:100690008260808368E184E00E94290310926B01EC
:1006A0005B9A10927000E09AE89A08951092700098
:1006B000E8980895909164019F5F9F732091630172
:1006C0009217E1F3E92FF0E0E051FE4F8083909321
:1006D000640180916B0181111CC0E898E091630175
:1006E000EF5FEF73E0936301F0E0E051FE4F808134
:1006F00090E09F60909368018093670180E1809310
:100700006B015B981092B20087E087BB82E0809318
:1007100070000895209166019091650181E0291390
:1007200001C080E00895909166018091650198175D
:10073000D1F3E0916501EF5FEF73E0936501F0E0C5
:10074000E05DFD4F808108950E94930390E008953D
:10075000CF93C82F8A3019F48DE00E945A038C2F52
:100760000E945A0380E090E0CF910895CF93DF93E9
:10077000EC0104C060E070E00E94A803899181113F
:10078000F9CFDF91CF9108951F920F920FB60F927C
:1007900011248F931092B200809160018093B30076
:1007A00087E087BB82E08093700080916B018111AC
:1007B00008C081E080936B0110926A011092690178
:1007C000E8988F910F900FBE0F901F9018951F9271
:1007D0000F920FB60F9211248F939F93EF93FF9375
:1007E000809161018093B30080916B01882309F4AB
:1007F0007DC080916B01803188F580916B018930DB
:10080000B0F48091690190916A01959587959093D4
:100810006A01809369014A9B38C080916901909177
:100820006A01806890936A01809369012EC01092DA
:100830007000E09AE89A10926B01E0916601EF5F18
:10084000EF73E09366018091650180916901909159
:100850006A01F0E0E05DFD4F808323C080916B0171
:100860008931C8F4809167019091680180FF02C0CE
:100870005B9A01C05B9880916701909168019595A2
:100880008795909368018093670180916B018F5FDA
:1008900080936B0106C010927000E09AE89A109263
:1008A0006B0180916B01811121C090916401809155
:1008B00063019817D9F0E0916301EF5FEF73E09364
:1008C0006301F0E0E051FE4F808190E09F609093E3
:1008D00068018093670180E180936B015B981092BF
:1008E000B20087E087BB82E080937000FF91EF91B8
:1008F0009F918F910F900FBE0F901F90189510929F
:1009000071021092700210926C0110926D0110929F
:100910006E0110926F0187E090E09093C500809384
:10092000C4005C9888ED8093C10086E08093C2008B
:1009300008959093C5008093C40008951F920F926C
:100940000FB60F9211248F939F93EF93FF93809193
:10095000C600E0916F01EF5FEF73E0936F0190913C
:100960006E01F0E0E059FE4F8083FF91EF919F917F
:100970008F910F900FBE0F901F9018951F920F929E
:100980000FB60F9211248F939F93EF93FF93909143
:100990006D0180916C019817C9F0E0916C01EF5FD7
:1009A000EF73E0936C018091700290917102892B3A
:1009B00029F48091C1008F7E8093C1005C9AF0E0A1
:1009C000E055FE4F80818093C60005C08091C10034
:1009D0008F7D8093C100FF91EF919F918F910F9038
:1009E0000FBE0F901F9018951F920F920FB60F9287
:1009F00011248F93EF93FF935C98E1ECF0E08081FA
:100A000080618083FF91EF918F910F900FBE0F90C7
:100A10001F90189520916F0190916E0181E029132C
:100A200001C080E0089590916F0180916E01981748
:100A3000D1F3E0916E01EF5FEF73E0936E01F0E0B0
:100A4000E059FE4F8081089590916D019F5F9F73E3
:100A500020916C019217E1F3E92FF0E0E055FE4F91
:100A6000808390936D018091C10080628093C1006A
:100A700008950E94130590E00895CF93C82F8A30FF
:100A800019F48DE00E9424058C2F0E94240580E03B
:100A900090E0CF910895CF93DF93EC0104C060E024
:100AA00070E00E943D0589918111F9CFDF91CF91CE
:100AB00008958AEF8AB98AE08BB98FE087B918B8B0
:100AC00084B915B80E943D030E947F040E9422024F
:100AD00087E880937A0080E98093BA0085EC809360
:100AE000BC00789481E191E090937302809372024C
:100AF0009093750280937402C0E010E9D5EC0E94D7
:100B0000740080915401C817D1F3C09154018091B1
:100B100054018111F4CF1093BA00D093BC00EFCFF1
:100B20000E94C705B7FF0895821B930B089597FB9A
:100B3000072E16F4009407D077FD09D00E94D30544
:100B400007FC05D03EF4909581959F4F08957095D0
:100B500061957F4F0895052E97FB16F4009407D0FA
:100B600057FD0DD00E94E70507FC09D07EF4909553
:100B70008095709561957F4F8F4F9F4F0895509549
:100B80004095309521953F4F4F4F5F4F0895A29F5D
:100B9000B001B39FC001A39F01D0B29F700D811D12
:100BA0001124911D0895AA1BBB1B51E107C0AA1F68
:100BB000BB1FA617B70710F0A61BB70B881F991FFE
:100BC0005A95A9F780959095BC01CD010895A1E2B1
:100BD0001A2EAA1BBB1BFD010DC0AA1FBB1FEE1FB7
:100BE000FF1FA217B307E407F50720F0A21BB30B02
:100BF000E40BF50B661F771F881F991F1A9469F77E
:100C000060957095809590959B01AC01BD01CF01D9
:100C10000895F999FECF92BD81BDF89A992780B5C4
:100C20000895262FF999FECF1FBA92BD81BD20BD30
:100C30000FB6F894FA9AF99A0FBE01960895F894AF
:020C4000FFCFE4
:100C420020A10700409C0000204E0000409C0000B4
:100C5200010000000300000000A803A40300000438
:100C6200CC0ACC0ACC0ACC0A00000000000000002A
:100C7200000000000000000000010203000000006C
:100C82000000000003030303000000000000000056
:00000001FF
