:103C00000C94341E0C94571E0C94571E0C94571E83
:103C10000C94571E0C94571E0C94571E0C94571E50
:103C20000C94571E0C94571E0C94571E0C94571E40
:103C30000C94571E0C94571E0C94571E0C94571E30
:103C40000C94861F0C94571E0C94571E0C94571EF0
:103C50000C94571E0C94571E0C94571E0C94571E10
:103C60000C94591E0C94571E11241FBECFEFD4E0A4
:103C7000DEBFCDBF14BEE0E6F0E088E180831082B5
:103C800011E0A0E0B1E0E6E9FFE302C005900D928B
:103C9000AA31B107D9F711E0AAE1B1E001C01D9244
:103CA000AE39B107E1F70E94A31F0C94C91F0C9411
:103CB000001E1F920F920FB60F9211242F933F9365
:103CC0004F935F936F938F939F93AF93BF93CF93D4
:103CD000DF93EF93FF938091B90090E0887F90701D
:103CE000883A910509F4C1C0893A910564F4803895
:103CF0009105C9F0803A910509F4E9C08036910533
:103D000009F0F2C00DC0803C910509F4E0C0883F85
:103D1000910509F4E0C0883B910509F0E5C0A7C012
:103D200010921B01D4C09091BB0040911B01413007
:103D3000D1F0413018F04430D8F52EC0992329F045
:103D4000933038F481E080931B011092000120E44D
:103D500004C081E280931A0120E090931A0122238B
:103D600009F0C0C036C080911A01813019F082304C
:103D700081F506C0903869F581E280931A0129C067
:103D800080931B01992311F482E103C0913009F55E
:103D900082E280931A01A5C030919C0120E0892F16
:103DA00090E0822B932B90939D0180939C010DC0FA
:103DB00080911A01823269F4E42FF0E0E85EFE4F50
:103DC0009083433810F091E005C04F5F40931B0192
:103DD00088C090E010921B0120E08091BC008068B8
:103DE000822B8093BC00913009F07EC0C0919C0171
:103DF000D0919D018CE3C030D80708F075C083E0F6
:103E0000FE0180935700E89507B600FCFDCFAE0198
:103E1000ACE1B1E061E08C9190E011963C9111979A
:103E200020E0822B932B1296FA010C01609357002D
:103E3000E89511244E5F5F4FF1E0AC39BF0759F7A9
:103E4000C058DF4FD0939D01C0939C01C058D04013
:103E500085E0FE0180935700E89507B600FCFDCF92
:103E600081E180935700E8953FC010921B0180913B
:103E70001A01823181F08232D1F0813011F0EFEFFE
:103E800021C080911B01E82FF0E0EF5FFE4FE08141
:103E90008F5F8F7009C080911B01E82FF0E0EF5E0B
:103EA000FE4FE0818F5F877080931B010BC0E09114
:103EB0009C01F0919D013196F0939D01E0939C014E
:103EC0003197E49181E38A95F1F7E093BB0080910B
:103ED000BC00806C03C08091BC00806D8093BC00EE
:103EE00003C020E490E079CFFF91EF91DF91CF9173
:103EF000BF91AF919F918F916F915F914F913F9142
:103F00002F910F900FBE0F901F9018951F920F9238
:103F10000FB60F9211248F9316BC8BB180588BB9BA
:103F200080910001823020F081508093000105C013
:103F3000813019F481E280931A018F910F900FBEA6
:103F40000F901F90189580EC8AB95F9A91E095BF09
:103F500082E085BF85E085BD90936E0082E5809309
:103F6000BA0085E48093BC00789480911A01813274
:103F7000E1F7F8941092BC0010926E0015BC81E03D
:103F800085BF15BE1BB8E0E0F0E000003197E9F70F
:063F90000995F894FFCF33
:103F960038545749424F4F54206D31363876322EB9
:0A3FA600311E940B803C0000000067
:0400000300003C00BD
:00000001FF
